:100000000C9434000C9451000C9451000C94510049
:100010000C9451000C94C7000C9451000C945100A6
:100020000C9451000C940F010C9451000C9451004D
:100030000C9451000C9451000C9451000C945100FC
:100040000C946B010C9451000C9451000C945100D1
:100050000C9451000C9451000C9451000C945100DC
:100060000C9451000C94510011241FBECFEFD8E026
:10007000DEBFCDBF11E0A0E0B1E0EEE9F4E002C0E8
:1000800005900D92A63AB107D9F721E0A6EAB1E0B2
:1000900001C01D92AA3AB207E1F70E948F000C94AA
:1000A0004D020C94000083E085BDEEE6F0E0808117
:1000B0008160808308951092B00084E08093B10045
:1000C00081E08093700080E28093B60008958823D9
:1000D00011F02A9A08952A9808950F931F93CF93A9
:1000E000DF93082FC8E0D0E010E82998802F812303
:1000F0000E946700299A16952197B9F7DF91CF9151
:100100001F910F9108955B9A2FE788E391E02150AA
:1001100080409040E1F700C000005B98089588E8B7
:100120008AB987E084B98FE187B988B1876088B9D7
:1001300088B188B984E780936D00809168008460FD
:10014000809368000E9453000E945B007894909115
:10015000A1018091A401981310C09091A0018091F9
:10016000A30198130AC08091A701882331F08091E0
:10017000A801811102C00E9483002FEF84E39CE05C
:10018000215080409040E1F700C00000E0CF1F9276
:100190000F920FB60F9211248F934A990BC081E0F2
:1001A0008093A8018091A701882321F01092A701D4
:1001B0001092A8014C990BC08091A801882339F0B6
:1001C00081E08093A7011092A8018093A5014D9929
:1001D0000FC08091A801882331F08091A1018F5F29
:1001E0008093A10105C08091A4018F5F8093A40139
:1001F0004E990FC08091A801882331F08091A00111
:100200008F5F8093A00105C08091A3018F5F8093D1
:10021000A3018F910F900FBE0F901F9018951F9202
:100220000F920FB60F9211248F939F938091A70185
:10023000882311F05F9A01C05F988091A9018823FB
:1002400041F01092A9018091A2018F5F8093A201D9
:1002500003C081E08093A9018091A801882331F037
:100260009091A50181E089278093A5018091A20149
:100270008C3338F01092A2018091A3018F5F80939C
:10028000A3018091A3018C3338F01092A3018091D7
:10029000A4018F5F8093A4018091A401883110F0A4
:1002A0001092A4018091A401873171F48091A3017F
:1002B0008B3351F48091A2018B3331F41092A2015F
:1002C0001092A3011092A4019F918F910F900FBEE5
:1002D0000F901F9018951F920F920FB60F92112436
:1002E0002F933F934F935F936F937F938F939F933E
:1002F000AF93BF93CF93DF93EF93FF938091A101CF
:10030000883110F01092A1018091A0018C3310F07F
:100310001092A0018091A501882309F493C08091D7
:10032000A601811120C08091A801882319F0809135
:10033000A10102C08091A4016AE00E94410294E000
:10034000899FE0011124C858DE4F8A810E946D0008
:1003500089810E946D0088810E946D00289A85B174
:1003600015B881E047C08091A601813001F58091E8
:10037000A801882319F08091A10102C08091A401F5
:100380006AE00E94410284E0989FE0011124C05B72
:10039000DE4F8A810E946D0089810E946D008881F4
:1003A0000E946D00289A85B115B882E023C0809123
:1003B000A601823011F58091A801882319F080915F
:1003C000A00102C08091A3016AE00E94410294E072
:1003D000899FE0011124C85DDE4F8A810E946D0073
:1003E00089810E946D0088810E946D00289A85B1E4
:1003F00015B883E08093A60131C08091A6018330B7
:1004000069F58091A801882319F08091A00102C0AC
:100410008091A3016AE00E94410284E0989FE0017C
:100420001124C050DF4F8A810E946D0089810E9493
:100430006D0088810E946D00289A85B115B81092D0
:10044000A6010CC080E00E946D0080E00E946D005B
:1004500080E00E946D00289A85B115B8FF91EF9158
:10046000DF91CF91BF91AF919F918F917F916F91CC
:100470005F914F913F912F910F900FBE0F901F9062
:100480001895991B79E004C0991F961708F0961BE0
:0E049000881F7A95C9F780950895F894FFCFDC
:10049E00DD090000900800005609000096090000D2
:1004AE009A0800008E090000CE0900009408000092
:1004BE00DF0900009F090000DD0500009004000028
:1004CE0056050000960500009A0400008E050000F7
:1004DE00CE05000094040000DF0500009F0500001B
:1004EE00FD810000B080000076810000B681000022
:1004FE00BA800000AE810000EE810000B4800000E2
:10050E00FF810000BF810000DD01010090000100AD
:10051E0056010100960101009A0001008E010100B2
:10052E00CE01010094000100DF0101009F010100D6
:06053E00170D1E160D0151
:00000001FF
